{
  "contractName": "KYCContract",
  "abi": [
    {
      "anonymous": false,
      "inputs": [
        {
          "indexed": true,
          "internalType": "address",
          "name": "user",
          "type": "address"
        }
      ],
      "name": "KYCCompleted",
      "type": "event"
    },
    {
      "inputs": [
        {
          "internalType": "address",
          "name": "",
          "type": "address"
        }
      ],
      "name": "kycCompleted",
      "outputs": [
        {
          "internalType": "bool",
          "name": "",
          "type": "bool"
        }
      ],
      "stateMutability": "view",
      "type": "function",
      "constant": true
    },
    {
      "inputs": [
        {
          "internalType": "address",
          "name": "user",
          "type": "address"
        }
      ],
      "name": "completeKYC",
      "outputs": [],
      "stateMutability": "nonpayable",
      "type": "function"
    },
    {
      "inputs": [
        {
          "internalType": "address",
          "name": "user",
          "type": "address"
        }
      ],
      "name": "checkKYC",
      "outputs": [
        {
          "internalType": "bool",
          "name": "",
          "type": "bool"
        }
      ],
      "stateMutability": "view",
      "type": "function",
      "constant": true
    },
    {
      "inputs": [
        {
          "internalType": "address",
          "name": "user",
          "type": "address"
        },
        {
          "internalType": "uint256",
          "name": "amount",
          "type": "uint256"
        }
      ],
      "name": "executeHighValueTransaction",
      "outputs": [],
      "stateMutability": "nonpayable",
      "type": "function"
    }
  ],
  "bytecode": "0x608060405234801561001057600080fd5b5061059a806100206000396000f3fe608060405234801561001057600080fd5b506004361061004c5760003560e01c806341c64dca146100515780638846594b1461006d578063da4f2b721461009d578063df235fe4146100b9575b600080fd5b61006b6004803603810190610066919061036b565b6100e9565b005b61008760048036038101906100829190610342565b61017a565b6040516100949190610482565b60405180910390f35b6100b760048036038101906100b29190610342565b6101cf565b005b6100d360048036038101906100ce9190610342565b6102f8565b6040516100e09190610482565b60405180910390f35b816000808273ffffffffffffffffffffffffffffffffffffffff1673ffffffffffffffffffffffffffffffffffffffff16815260200190815260200160002060009054906101000a900460ff16610175576040517f08c379a000000000000000000000000000000000000000000000000000000000815260040161016c9061049d565b60405180910390fd5b505050565b60008060008373ffffffffffffffffffffffffffffffffffffffff1673ffffffffffffffffffffffffffffffffffffffff16815260200190815260200160002060009054906101000a900460ff169050919050565b6000808273ffffffffffffffffffffffffffffffffffffffff1673ffffffffffffffffffffffffffffffffffffffff16815260200190815260200160002060009054906101000a900460ff161561025b576040517f08c379a0000000000000000000000000000000000000000000000000000000008152600401610252906104bd565b60405180910390fd5b60016000808373ffffffffffffffffffffffffffffffffffffffff1673ffffffffffffffffffffffffffffffffffffffff16815260200190815260200160002060006101000a81548160ff0219169083151502179055508073ffffffffffffffffffffffffffffffffffffffff167ff90f6f88885eadaecb81c5cacd6b552fa7a6440f72b5ff21916e70640baaedc060405160405180910390a250565b60006020528060005260406000206000915054906101000a900460ff1681565b60008135905061032781610536565b92915050565b60008135905061033c8161054d565b92915050565b60006020828403121561035457600080fd5b600061036284828501610318565b91505092915050565b6000806040838503121561037e57600080fd5b600061038c85828601610318565b925050602061039d8582860161032d565b9150509250929050565b6103b081610500565b82525050565b60006103c36029836104dd565b91507f55736572206d75737420636f6d706c657465204b5943206265666f726520707260008301527f6f63656564696e672e00000000000000000000000000000000000000000000006020830152604082019050919050565b60006104296024836104dd565b91507f4b594320616c726561647920636f6d706c6574656420666f722074686973207560008301527f7365722e000000000000000000000000000000000000000000000000000000006020830152604082019050919050565b600060208201905061049760008301846103a7565b92915050565b600060208201905081810360008301526104b6816103b6565b9050919050565b600060208201905081810360008301526104d68161041c565b9050919050565b600082825260208201905092915050565b60006104f98261050c565b9050919050565b60008115159050919050565b600073ffffffffffffffffffffffffffffffffffffffff82169050919050565b6000819050919050565b61053f816104ee565b811461054a57600080fd5b50565b6105568161052c565b811461056157600080fd5b5056fea2646970667358221220c6a522d5c944ff8dd26040c5ed6458282feceb2d63b8f402613a37c0b79e01ce64736f6c63430008000033",
  "immutableReferences": {},
  "source": "// contracts/KYCContract.sol\r\n// SPDX-License-Identifier: MIT\r\npragma solidity ^0.8.0;\r\n\r\ncontract KYCContract {\r\n    // Store KYC status of users\r\n    mapping(address => bool) public kycCompleted;\r\n\r\n    // Define an event to notify KYC completion\r\n    event KYCCompleted(address indexed user);\r\n\r\n    // Only allow KYC completion if the user hasn't been verified yet\r\n    function completeKYC(address user) public {\r\n        require(!kycCompleted[user], \"KYC already completed for this user.\");\r\n        kycCompleted[user] = true;\r\n        emit KYCCompleted(user);\r\n    }\r\n\r\n    // Check if a user has completed KYC\r\n    function checkKYC(address user) public view returns (bool) {\r\n        return kycCompleted[user];\r\n    }\r\n\r\n    // Enforce KYC before high-value transactions\r\n    modifier onlyKYC(address user) {\r\n        require(kycCompleted[user], \"User must complete KYC before proceeding.\");\r\n        _;\r\n    }\r\n\r\n    // Example function that requires KYC for executing high-value transactions\r\n    function executeHighValueTransaction(address user, uint256 amount) public onlyKYC(user) {\r\n        // High-value transaction logic here\r\n        // For example, a marketplace sale or a large NFT transaction\r\n    }\r\n}\r\n",
  "sourcePath": "C:\\Users\\Himanshu Sugha\\Desktop\\New folder\\contracts\\contracts\\KYCContract.sol",
  "compiler": {
    "name": "solc",
    "version": "0.8.0+commit.c7dfd78e.Emscripten.clang"
  },
  "schemaVersion": "3.4.16",
  "updatedAt": "2024-12-16T03:20:20.590Z",
  "networkType": "ethereum",
  "devdoc": {
    "kind": "dev",
    "methods": {},
    "version": 1
  },
  "userdoc": {
    "kind": "user",
    "methods": {},
    "version": 1
  }
}